:101800003BC06FC054C053C052C051C050C04FC045
:101810004EC04DC04CC04BC04AC049C048C047C074
:1018200046C045C066C209021200010100803209AB
:10183000040000000000000012011001FF00000879
:10184000C016DC050201010200010E035500530021
:1018500042006100730070001C037700770077007E
:101860002E00660069007300630068006C002E00A3
:10187000640065000403090411241FBECFE5D4E011
:10188000DEBFCDBF10E0A0E6B0E0EEEAFFE102C0AF
:1018900005900D92A836B107D9F720E0A8E6B0E090
:1018A00001C01D92A939B207E1F743D37EC3A8CF87
:1018B000A82FB92F80E090E041E050EA609530E039
:1018C00009C02D9182279795879510F08427952739
:1018D000305EC8F36F5FA8F30895EADF8D939D93A0
:1018E0000895CF93CFB7CF93DF93C395829BE9F74A
:1018F000829B0BC0829B09C0829B07C0829B05C054
:10190000829B03C0829B01C089C06F93C0917C0001
:10191000DD27CD57DF4F2F9365E5829B03C02F91C5
:101920006F91E6CF0F931F934F9320E040E15F93B9
:1019300000B3047102FB27F93F9350E03BE039C04C
:10194000147140642F77012F5F5F1EC0406810B391
:1019500014712F7752501FC0406400B32F77047169
:10196000D1F15F5F00C023C0406210B32F771471C4
:1019700091F15F5F00C025C004711027515012F42F
:101980005D5F0000115027952C3F10B3C8F614710D
:101990000127015027952C3FC8F64227499300B3F1
:1019A000047110274F73115027952C3FA8F64695C8
:1019B000469510B3147179F00127015027952C3FFB
:1019C00098F66B5A60F3315000B3B0F600C010E4E3
:1019D0001ABF002717C03B503195C31BD04010E4FD
:1019E0001ABF0881033CF9F00B34E9F020917A002A
:1019F0001981110F1213EDCF093651F10D3211F08B
:101A0000013E39F7009381003F915F914F911F9103
:101A10000F912F916F91CAB7C6FD67CFDF91CF911C
:101A2000CFBFCF91189520918100222369F31091A7
:101A30007F00112339F534303AF130937F00209341
:101A40007B0010917C003BE0311B30937C001CC07C
:101A500000917F000130B4F40AE53091610034FD5B
:101A600014C000936100CFE6D0E013C0052710E05A
:101A700000C0000002BB1AC0052710E0221F1DC0D5
:101A800010E021C04AE502C032ED432FC4E1D0E0AE
:101A900032E011B31461929A02B311BB54E120E811
:101AA00065E320FF052702BB279517951C3FF0F63D
:101AB0006695B8F7B1F720FF052702BB2795179564
:101AC0001C3FD0F62795179517FF052700001C3FF0
:101AD00002BBB0F629913A9519F70B7E1091800060
:101AE000110FC651D04002BB11F010937A0010E4E0
:101AF0001ABF046011B31B7E402F4B7E54E05A95F1
:101B0000F1F702BB11BB42BB7FCF8C93E8959C9150
:101B100090FDFDCF81E196FDF8CF0895DC0188E6C8
:101B200090E090937E0080937D0011968C911197A8
:101B3000582E8330B1F513969C91139714968C917F
:101B400014971296EC911297E03339F48370E82FD2
:101B5000F0E0ED59FF4F808120C02E2F277F2035E8
:101B600059F4E3FBEE27E0F993FDE260F0E089E051
:101B700080935700849111C0E03A11F401D20DC056
:101B8000E03C21F415966C9103D206C0EC3A21F4A6
:101B9000903811F41092620080E080936B0084E032
:101BA00008958530C9F08A30B9F09CEF980F9630CF
:101BB00010F080E0089512962D913C911397309388
:101BC0006E0020936D008930A1F316963C90169715
:101BD00015964C908FEF089581E00895CF93DC0126
:101BE000932D361608F4632D292F261B322E91E0F3
:101BF00009F090E06F5F81E043E055E071E1C42DB2
:101C0000C270623008F450C020916D0030916E00B7
:101C10002115384108F04AC0F894E0916D00F09128
:101C20006E002D913D91090180935700E895112494
:101C30007894625020916D0030916E002E5F3F4F7E
:101C400030936E0020936D002F733327232B31F0D8
:101C50009923B9F26230A8F6CC2399F22091620060
:101C6000222359F0F894E0916D00F0916E003297C4
:101C700050935700E89578940EC0F894E0916D0069
:101C8000F0916E00329740935700E895789407B62C
:101C900000FCFDCFE7CF07B600FCFDCFF8947093B2
:101CA0005700E8957894ADCF892F01C081E0CF919E
:101CB0000895232D361608F4632D261B322E20910D
:101CC0006D0030916E00DC01A901481B590B862F75
:101CD0008A0FFA01EA0FFB1F8A1719F0E491ED93BE
:101CE000F8CF260F311D30936E0020936D00862FA4
:101CF00008950BDF1F93CF93DF9380917F001DEF3B
:101D0000180F17FDAEC090917C00CCE0D0E0C91B4D
:101D1000D109CD57DF4F6FEF680FCE01C9DD8E3F80
:101D20009F4409F09CC080917B008D3209F087C0F0
:101D3000183009F094C083EC80936F008AE580939B
:101D4000610010926C008881807639F0CE01E6DE69
:101D5000982F8F3F09F462C068C09A811092780072
:101D60008981811106C01092790028E730E092E065
:101D700050C0853019F4909380003DC08630A9F59D
:101D80008B81813019F488E398E104C0823041F4FA
:101D900086E298E190937E0080937D0092E121C0DD
:101DA0008330F1F4911108C084E798E190937E00AC
:101DB00080937D0094E015C0913041F488E598E16E
:101DC00090937E0080937D009CE10BC0923041F4A3
:101DD0008AE498E190937E0080937D009EE001C0AC
:101DE00090E080E480936C0020C0883079F08930E6
:101DF00031F49093820028E730E090E00AC091E04F
:101E00008A3009F090E028E730E003C022E830E0B3
:101E100091E030937E0020937D0007C0888187FD8C
:101E20009E8180E880936C0007C08F81811104C07F
:101E30008E81891708F4982F9093600010C08091CC
:101E40006C0087FF0CC0612FCE01C8DE8F3F21F4EC
:101E50008EE18093610003C08111109260001092A6
:101E60007F008091610084FF4FC0809160008F3FB0
:101E700009F44AC0C82F893008F0C8E08C1B809351
:101E8000600090916F0088E8892780936F00CC23D1
:101E900051F130916C0037FF08C06C2F80E790E063
:101EA00008DFC82F893050F51EC080917D009091C9
:101EB0007E002C2F280FA0E7B0E0FC0136FF06C003
:101EC00034913D9331962E13FBCF04C031913D9355
:101ED0002E13FCCF01962FEF2C0F820F911D9093A4
:101EE0007E0080937D006C2F80E790E0F6DCCC5F75
:101EF000CC3041F08FEF8093600004C08FEF80936F
:101F00006000CEE1C093610084E190B3947131F43C
:101F10008150D9F71092800010927A00DF91CF9112
:101F20001F91089585B7826085BF8BB780648BBF92
:101F30000895512C04B601FC0AC0F8948A9A1BBE7D
:101F400015BE81E08BBF1BBEE0E0F0E0099514BE3A
:101F500088E181BD87E081BD81E08BBF82E08BBFDE
:101F6000E1DF8A9AFFEF21EB8CE0F15020408040C6
:101F7000E1F700C000008A987894A895BBDEFDCFF9
:101F8000E199FECF9FBB8EBBE09A99278DB3089550
:101F9000262FE199FECF9FBB8EBB2DBB0FB6F894C9
:0E1FA000E29AE19A0FBE01960895F894FFCFE1
:081FAE00FF5A011E9307000019
:0400000300001800E1
:00000001FF
