:1000000066C09AC0BAC17EC07DC07CC07BC07AC0C9
:1000100079C078C077C076C075C074C073C072C034
:1000200071C070C06FC0050C0901A10185011500E8
:1000300025017501950419B529B709CD81029501EE
:1000400009E28106950209E909EA81029501810325
:10005000C009022200010100801909040000010307
:10006000000000092101010001222B000705810386
:1000700008000A1201100100000008C016CD05009A
:1000800001010203010A0330003000300031002872
:100090000348004900440020004D0075006C0074C6
:1000A0000069006D00650064006900610020004483
:1000B00000690061006C0012034B002E0043002E0B
:1000C0000020004C006500650004030904001124B1
:1000D0001FBECFE5D4E0DEBFCDBF10E0A0E6B0E0AC
:1000E000E6EFF8E002C005900D92A436B107D9F70B
:1000F00020E0A4E6B0E001C01D92A43AB207E1F707
:1001000082D2F7C37DCFA82FB92F80E090E041E0E5
:1001100050EA609530E009C02D9182279795879528
:1001200010F084279527305EC8F36F5FA8F3089519
:10013000EADF8D939D930895CF93CFB7CF93DF934D
:10014000C395829BE9F7829B0BC0829B09C0829B6F
:1001500007C0829B05C0829B03C0829B01C08BC0ED
:100160006F93C0918700DD27C257DF4F2F9365E55E
:10017000829B03C02F916F91E6CF0F931F934F93F4
:1001800020E040E15F9300B3047102FB27F93F9345
:1001900050E03BE039C0147140642F77012F5F5F5E
:1001A0001EC0406810B314712F7752501FC04064B6
:1001B00000B32F770471D1F15F5F00C023C04062AC
:1001C00010B32F77147191F15F5F00C025C00471E7
:1001D0001027515012F45D5F0000115027952C3FFD
:1001E00010B3C8F614710127015027952C3FC8F6AB
:1001F0004227499300B3047110274F73115027957C
:100200002C3FA8F64695469510B3147179F0012756
:10021000015027952C3F98F66B5A60F3315000B38C
:10022000B0F600C010E41ABF002719C03B5031954A
:10023000C31BD04010E41ABF0881033C09F10B3402
:10024000F9F0209185001981110F1213EDCF4A8129
:10025000441F093651F10D3211F0013E29F7009388
:100260008C003F915F914F911F910F912F916F9152
:10027000CAB7C6FD65CFDF91CF91CFBFCF9118959B
:1002800020918C00222369F310918A00112391F5AB
:10029000343092F130938A002093860010918700C9
:1002A0003BE0311B3093870027C000918A0001306A
:1002B0000CF50AE54F7049F43091620034FD1DC021
:1002C00000936200CEE6D0E01CC03091790034FD8E
:1002D00014C000937900CAE7D0E013C0052710E0EE
:1002E00000C0000002BB1AC0052710E0221F1DC07D
:1002F00010E021C04AE502C032ED432FC4E1D0E056
:1003000032E011B31461929A02B311BB54E120E8B8
:1003100065E320FF052702BB279517951C3FF0F6E4
:100320006695B8F7B1F720FF052702BB279517950B
:100330001C3FD0F62795179517FF052700001C3F97
:1003400002BBB0F629913A9519F70B7E10918B00FC
:10035000110FC651D04002BB11F01093850010E47C
:100360001ABF046011B31B7E402F4B7E54E05A9598
:10037000F1F702BB11BB42BB74CF1F920F920FB6B5
:100380000F9211248F939F9380B393B391708870D1
:10039000892B789490916800913041F4883079F4F9
:1003A00090916B00915090936B0009C0911107C020
:1003B000893029F490916B009F5F90936B0080933C
:1003C00068009F918F910F900FBE0F901F9018950E
:1003D00008B600FEA3C081E088BF80916600882334
:1003E00019F081508093660080916000880F80939F
:1003F0006000999B03C081608093600080916500DC
:10040000823009F444C028F4882361F08130B9F0C7
:100410000895843009F45DC008F449C0853009F4BA
:1004200076C00895809160008F70883009F076C0A2
:1004300081E08093650089E0809366000895809153
:100440006600811117C080916900811167C084E046
:100450008093650089E18093660080916400882321
:1004600011F088E001C080E180936D0082E080930C
:1004700069000895809160008370833009F04EC058
:1004800082E0809365008FE08093660008958091FC
:100490006600811103C0109265000895809160008C
:1004A0008F708830D9F583E080936500089595B307
:1004B00084E0892785BB81E090916400911180E000
:1004C0008093640089E18093660085E080936500F5
:1004D000089590916600911112C090916900911158
:1004E0001DC090916400911101C088E080936D005F
:1004F00085E08093650082E0809369000895809193
:1005000060008370833051F41092650008958091EB
:1005100060008370833011F410926500089580911B
:10052000690081113AC080916B00882359F0F894DA
:1005300080916B0010926B00789490916700890F06
:10054000809367008091670018169CF48150809317
:10055000670080916D0090916400992311F091E003
:1005600001C090E2892B80936D0082E08093690046
:100570000895882394F48F5F8093670080916D00C5
:1005800090916400992311F092E001C090E4892BCE
:1005900080936D0082E080936900089580916900E6
:1005A0008823C1F09091790094FF14C0813051F0FC
:1005B000823081F462E08CE690E041D081E080936B
:1005C0006900089510926D0062E08CE690E037D0EB
:1005D00010926900089585B38C6085BB85B38C60EB
:1005E00085BB8FEF87BB8CEF84BB80EE81BB85E042
:1005F00083BF85B7846085BF8BB780688BBF81E080
:1006000080936C000895E7DF67D18A9A2FEF84E327
:100610009CE0215080409040E1F700C000008A98A3
:1006200078942FD0BBDFD4DE7ADFFBCF21E0FC0152
:100630008181893009F020E0822F81950895CF9340
:10064000C62F2091790024FF07C0E9E7F0E031814F
:1006500028E82327218303C02AE520937900E82F87
:10066000F92FABE7B0E08C2F91919D938150E1F78A
:100670006C2F8BE790E05CDDCC5FC0937900CF916D
:100680000895CF93DF9380918A0083500AF4BEC00F
:1006900020918700909186009D3209F0B5C0883086
:1006A00009F0B2C0CCE0D0E0C21BD109C257DF4F85
:1006B00083EC80936E008AE58093620010926A005A
:1006C0008881807619F0CE01B1DF95C09A811092B1
:1006D00077008981811106C01092780027E730E009
:1006E00082E085C0853031F490938B0027E730E0BD
:1006F00080E07DC0863009F05AC08B81813041F4A2
:1007000083E790E0909389008093880082E14BC05A
:10071000823041F481E590E09093890080938800D5
:1007200082E241C0833041F5911108C089EC90E02C
:10073000909389008093880084E035C0913041F423
:1007400087EB90E0909389008093880082E12BC032
:10075000923041F48FE890E0909389008093880074
:1007600088E221C09330E1F485E890E0909389001D
:10077000809388008AE017C0813241F483E690E0DC
:10078000909389008093880089E00DC0823251F4F3
:1007900086E290E090938900809388008BE203C00A
:1007A00080E001C080E090E490936A0024C088302B
:1007B00099F0893031F490938D0027E730E080E0A4
:1007C00016C08A3069F08B3079F48BE480937A001C
:1007D00027E730E080E00BC02DE830E081E007C083
:1007E00027E730E081E003C027E730E080E0309386
:1007F0008900209388009F81911104C09E819817E1
:1008000008F4892F8093610010928A008091620021
:1008100084FF4BC0809161008F3F09F446C0C82F10
:10082000893008F0C8E08C1B80936100EEE6F0E0B0
:10083000908188E889278083CC2309F444C02091E3
:1008400088003091890080916A0086FF10C0AFE671
:10085000B0E0F9018C2F94919D9331968150D9F796
:100860008FEF8C0F90E00196280F391F0EC0D90131
:10087000EFE6F0E08C2F9D9191938150E1F78FEF9F
:100880008C0F90E00196280F391F30938900209338
:1008900088006C2F8FE690E04BDCCC5FCC3018F4F6
:1008A0008FEF80936100C093620080B3847189F4FC
:1008B00093E180B3847169F49150D9F710928B0061
:1008C0001092850006C06C2F8FE690E031DCCC5F83
:1008D000E7CFDF91CF91089585B7826085BF8BB751
:1008E00080648BBFE9E7F0E08BE481838AE5808355
:0608F0000895F894FFCF0B
:0408F6000FFF5A0096
:00000001FF
